:020000040800F2
:100000000000082495220008152100081721000887
:10001000192100081B2100081D2100080000000014
:100020000000000000000000000000001F21000888
:1000300021210008000000002321000825210008DC
:10004000E5220008E5220008E5220008E522000874
:10005000E5220008E5220008E5220008E522000864
:10006000E52200082D21000837210008E5220008BC
:10007000E5220008E5220008E5220008E522000844
:10008000E5220008E5220008E522000841210008D9
:10009000E522000851210008E5220008E5220008B9
:1000A000E5220008E5220008E5220008E522000814
:1000B000E5220008E5220008E5220008E522000804
:1000C000E5220008E5220008E5220008E5220008F4
:1000D000E522000861210008E5220008E522000869
:1000E000E5220008E522000800000000E5220008E3
:1000F000E5220008E5220008E5220008E5220008C4
:10010000E5220008E5220008E5220008E5220008B3
:10011000E5220008E5220008E5220008E5220008A3
:10012000E5220008E5220008E5220008E522000893
:10013000E5220008E5220008E5220008E522000883
:1001400000000000000000000000000000000000AF
:10015000E5220008E5220008E5220008E522000863
:10016000E5220008E5220008E5220008E522000853
:10017000E5220008E5220008E5220008E522000843
:10018000E5220008E5220008E5220008E522000833
:10019000E5220008E5220008E5220008E522000823
:1001A000E5220008E5220008E5220008E522000813
:1001B000E5220008E5220008E5220008E522000803
:1001C000E5220008E5220008E5220008E5220008F3
:1001D000E5220008E5220008E5220008E5220008E3
:1001E000E5220008E5220008E5220008E5220008D3
:1001F000E5220008E5220008E5220008E5220008C3
:10020000E5220008E5220008E5220008E5220008B2
:10021000E5220008E5220008E5220008E5220008A2
:10022000E5220008E5220008E522000800000000A1
:10023000E5220008E522000800000000E522000891
:10024000E5220008E5220008E5220008E522000872
:10025000E5220008E5220008E5220008E522000862
:10026000E5220008E5220008E5220008E522000852
:10027000E5220008E5220008E52200080000000051
:10028000E5220008E5220008E52200080000000041
:0802900000000000E522000857
:1002C00010B5054C237833B9044B13B10448AFF390
:1002D00000800123237010BDC80900240000000025
:1002E000F0CF000808B5034B1BB103490348AFF337
:1002F000008008BD00000000CC090024F0CF0008F9
:1003000081F0004102E000BF83F0004330B54FEAC6
:1003100041044FEA430594EA050F08BF90EA020F33
:100320001FBF54EA000C55EA020C7FEA645C7FEAC6
:10033000655C00F0E2804FEA5454D4EB5555B8BFE9
:100340006D420CDD2C4480EA020281EA030382EA5A
:10035000000083EA010180EA020281EA0303362DEC
:1003600088BF30BD11F0004F4FEA01314FF4801CBF
:100370004CEA113102D0404261EB410113F0004FD1
:100380004FEA03334CEA133302D0524263EB430388
:1003900094EA050F00F0A780A4F10104D5F1200E26
:1003A0000DDB02FA0EFC22FA05F2801841F1000181
:1003B00003FA0EF2801843FA05F359410EE0A5F155
:1003C00020050EF1200E012A03FA0EFC28BF4CF086
:1003D000020C43FA05F3C01851EBE37101F000453C
:1003E00007D54FF0000EDCF1000C7EEB00006EEB49
:1003F0000101B1F5801F1BD3B1F5001F0CD34908D3
:100400005FEA30004FEA3C0C04F101044FEA445229
:1004100012F5800F80F09A80BCF1004F08BF5FEAB0
:10042000500C50F1000041EB045141EA050130BD90
:100430005FEA4C0C404141EB0101013C28BFB1F5A2
:10044000801FE9D291F0000F04BF01460020B1FAED
:1004500081F308BF2033A3F10B03B3F120020CDAC0
:100460000C3208DD02F1140CC2F10C0201FA0CF09E
:1004700021FA02F10CE002F11402D8BFC2F1200C03
:1004800001FA02F120FA0CFCDCBF41EA0C019040B9
:10049000E41AA2BF01EB0451294330BD6FEA040402
:1004A0001F3C1CDA0C340EDC04F11404C4F12002ED
:1004B00020FA04F001FA02F340EA030021FA04F3FF
:1004C00045EA030130BDC4F10C04C4F1200220FA56
:1004D00002F001FA04F340EA0300294630BD21FA94
:1004E00004F0294630BD94F0000F83F4801306BF5A
:1004F00081F480110134013D4EE77FEA645C18BF4E
:100500007FEA655C29D094EA050F08BF90EA020FE4
:1005100005D054EA000C04BF1946104630BD91EADC
:10052000030F1EBF0021002030BD5FEA545C05D1DF
:100530004000494128BF41F0004130BD14F580041E
:100540003CBF01F5801130BD01F0004545F0FE4192
:1005500041F470014FF0000030BD7FEA645C1ABFC7
:10056000194610467FEA655C1CBF0B46024650EAFE
:10057000013406BF52EA033591EA030F41F400212A
:1005800030BD00BF90F0000F04BF0021704730B5B0
:100590004FF4806404F132044FF000054FF0000185
:1005A00050E700BF90F0000F04BF0021704730B546
:1005B0004FF4806404F1320410F0004548BF40421B
:1005C0004FF000013EE700BF42004FEAE2014FEA70
:1005D00031014FEA02701FBF12F07F4393F07F4F4B
:1005E00081F06051704732F07F4208BF704793F04E
:1005F0007F4F04BF41F40021704730B54FF4607461
:1006000001F0004521F000411CE700BF50EA010263
:1006100008BF704730B54FF000050AE050EA01020C
:1006200008BF704730B511F0004502D5404261EB7C
:1006300041014FF4806404F132045FEA915C3FF4BD
:10064000D8AE4FF003025FEADC0C18BF03325FEA5A
:10065000DC0C18BF033202EBDC02C2F1200300FA0B
:1006600003FC20FA02F001FA03FE40EA0E0021FA30
:1006700002F11444BDE600BF70B54FF0FF0C4CF41E
:10068000E06C1CEA11541DBF1CEA135594EA0C0FD0
:1006900095EA0C0F00F0DEF82C4481EA030621EA0B
:1006A0004C5123EA4C5350EA013518BF52EA033546
:1006B00041F4801143F4801338D0A0FB02CE4FF0F8
:1006C0000005E1FB02E506F00042E0FB03E54FF028
:1006D0000006E1FB03569CF0000F18BF4EF0010E20
:1006E000A4F1FF04B6F5007F64F5407404D25FEA1C
:1006F0004E0E6D4146EB060642EAC62141EA5551CF
:100700004FEAC52040EA5E504FEACE2EB4F1FD0C10
:1007100088BFBCF5E06F1ED8BEF1004F08BF5FEA8E
:10072000500E50F1000041EB045170BD06F0004640
:1007300046EA010140EA020081EA0301B4EB5C04ED
:10074000C2BFD4EB0C0541EA045170BD41F48011E5
:100750004FF0000E013C00F3AB8014F1360FDEBF0A
:10076000002001F0004170BDC4F10004203C35DAE6
:100770000C341BDC04F11404C4F1200500FA05F369
:1007800020FA04F001FA05F240EA020001F000420A
:1007900021F0004110EBD37021FA04F642EB060180
:1007A0005EEA430E08BF20EAD37070BDC4F10C04AA
:1007B000C4F1200500FA04F320FA05F001FA04F26E
:1007C00040EA020001F0004110EBD37041F100015A
:1007D0005EEA430E08BF20EAD37070BDC4F1200565
:1007E00000FA05F24EEA020E20FA04F301FA05F2CD
:1007F00043EA020321FA04F001F0004121FA04F275
:1008000020EA020000EBD3705EEA430E08BF20EA44
:10081000D37070BD94F0000F0FD101F0004640007E
:1008200041EB010111F4801F08BF013CF7D041EA00
:10083000060195F0000F18BF704703F00046520004
:1008400043EB030313F4801F08BF013DF7D043EAD5
:100850000603704794EA0C0F0CEA135518BF95EA8B
:100860000C0F0CD050EA410618BF52EA4306D1D112
:1008700081EA030101F000414FF0000070BD50EA31
:10088000410606BF1046194652EA430619D094EABB
:100890000C0F02D150EA013613D195EA0C0F05D1A5
:1008A00052EA03361CBF104619460AD181EA0301F9
:1008B00001F0004141F0FE4141F470014FF00000B1
:1008C00070BD41F0FE4141F4780170BD70B54FF04C
:1008D000FF0C4CF4E06C1CEA11541DBF1CEA1355CC
:1008E00094EA0C0F95EA0C0F00F0A7F8A4EB0504AE
:1008F00081EA030E52EA03354FEA013100F08880A5
:100900004FEA03334FF0805545EA131343EA12636D
:100910004FEA022245EA111545EA10654FEA002622
:100920000EF000419D4208BF964244F1FD0404F5DB
:10093000407402D25B084FEA3202B61A65EB030537
:100940005B084FEA32024FF480104FF4002CB6EBF4
:10095000020E75EB030E22BFB61A754640EA0C0074
:100960005B084FEA3202B6EB020E75EB030E22BFB4
:10097000B61A754640EA5C005B084FEA3202B6EBF5
:10098000020E75EB030E22BFB61A754640EA9C00B4
:100990005B084FEA3202B6EB020E75EB030E22BF84
:1009A000B61A754640EADC0055EA060E18D04FEA42
:1009B000051545EA16754FEA06164FEAC30343EAE2
:1009C00052734FEAC2025FEA1C1CC0D111F4801FAF
:1009D0000BD141EA00014FF000004FF0004CB6E7A8
:1009E00011F4801F04BF01430020B4F1FD0C88BF47
:1009F000BCF5E06F3FF6AFAEB5EB030C04BFB6EB52
:100A0000020C5FEA500C50F1000041EB045170BD44
:100A10000EF0004E4EEA113114EB5C04C2BFD4EB71
:100A20000C0541EA045170BD41F480114FF0000EF5
:100A3000013C90E645EA060E8DE60CEA135594EA71
:100A40000C0F08BF95EA0C0F3FF43BAF94EA0C0F74
:100A50000AD150EA01347FF434AF95EA0C0F7FF4E9
:100A600025AF104619462CE795EA0C0F06D152EA3D
:100A700003353FF4FDAE1046194622E750EA410621
:100A800018BF52EA43067FF4C5AE50EA41047FF432
:100A90000DAF52EA43057FF4EBAE12E780F0004061
:100AA00002E000BF81F0004142001FBF5FEA410346
:100AB00092EA030F7FEA226C7FEA236C6AD04FEA46
:100AC0001262D2EB1363C1BFD2184140484041408B
:100AD000B8BF5B42192B88BF704710F0004F40F43D
:100AE000000020F07F4018BF404211F0004F41F459
:100AF000000121F07F4118BF494292EA030F3FD025
:100B0000A2F1010241FA03FC10EB0C00C3F1200337
:100B100001FA03F100F0004302D5494260EB4000C6
:100B2000B0F5000F13D3B0F1807F06D340084FEA31
:100B3000310102F10102FE2A51D2B1F1004F40EB26
:100B4000C25008BF20F0010040EA0300704749008E
:100B500040EB0000013A28BFB0F5000FEDD2B0FA2B
:100B600080FCACF1080CB2EB0C0200FA0CF0AABF4E
:100B700000EBC25052421843BCBFD04018437047EC
:100B800092F0000F81F4000106BF80F400000132F2
:100B9000013BB5E74FEA41037FEA226C18BF7FEAC9
:100BA000236C21D092EA030F04D092F0000F08BF0B
:100BB0000846704790EA010F1CBF0020704712F0F2
:100BC0007F4F04D1400028BF40F00040704712F131
:100BD00000723CBF00F50000704700F0004343F096
:100BE000FE4040F4000070477FEA226216BF0846CC
:100BF0007FEA23630146420206BF5FEA412390EA8F
:100C0000010F40F4800070474FF0000304E000BF84
:100C100010F0004348BF40425FEA000C08BF704735
:100C200043F0964301464FF000001CE050EA0102F9
:100C300008BF70474FF000030AE000BF50EA01020E
:100C400008BF704711F0004302D5404261EB4101FB
:100C50005FEA010C02BF84460146002043F0B64320
:100C600008BFA3F18053A3F50003BCFA8CF2083A45
:100C7000A3EBC25310DB01FA02FC634400FA02FC4E
:100C8000C2F12002BCF1004F20FA02F243EB020055
:100C900008BF20F00100704702F1200201FA02FCB7
:100CA000C2F1200250EA4C0021FA02F243EB0200AA
:100CB00008BF20EADC7070474FF0FF0C1CEAD052EE
:100CC0001EBF1CEAD15392EA0C0F93EA0C0F6FD0AF
:100CD0001A4480EA010C400218BF5FEA41211ED08D
:100CE0004FF0006343EA501043EA5111A0FB013179
:100CF0000CF00040B1F5000F3EBF490041EAD3714E
:100D00005B0040EA010062F17F02FD2A1DD8B3F1C9
:100D1000004F40EBC25008BF20F00100704790F038
:100D2000000F0CF0004C08BF49024CEA502040EA8A
:100D300051207F3AC2BFD2F1FF0340EAC250704750
:100D400040F400004FF00003013A5DDC12F1190F8E
:100D5000DCBF00F000407047C2F10002410021FA00
:100D600002F1C2F1200200FA02FC5FEA310040F118
:100D7000000053EA4C0308BF20EADC70704792F091
:100D8000000F00F0004C02BF400010F4000F013AC9
:100D9000F9D040EA0C0093F0000F01F0004C02BFC4
:100DA000490011F4000F013BF9D041EA0C018FE733
:100DB0000CEAD15392EA0C0F18BF93EA0C0F0AD039
:100DC00030F0004C18BF31F0004CD8D180EA01005F
:100DD00000F00040704790F0000F17BF90F0004FF8
:100DE000084691F0000F91F0004F14D092EA0C0FDA
:100DF00001D142020FD193EA0C0F03D14B0218BF6D
:100E0000084608D180EA010000F0004040F0FE40B2
:100E100040F40000704740F0FE4040F4400070474E
:100E20004FF0FF0C1CEAD0521EBF1CEAD15392EACD
:100E30000C0F93EA0C0F69D0A2EB030280EA010CBD
:100E400049024FEA402037D04FF0805343EA111156
:100E500043EA10130CF000408B4238BF5B0042F1B4
:100E60007D024FF4000C8B4224BF5B1A40EA0C0059
:100E7000B3EB510F24BFA3EB510340EA5C00B3EB8B
:100E8000910F24BFA3EB910340EA9C00B3EBD10F79
:100E900024BFA3EBD10340EADC001B0118BF5FEACB
:100EA0001C1CE0D1FD2A3FF650AF8B4240EBC250F4
:100EB00008BF20F0010070470CF0004C4CEA5020B5
:100EC0007F32C2BFD2F1FF0340EAC250704740F404
:100ED00000004FF00003013A37E792F0000F00F0F6
:100EE000004C02BF400010F4000F013AF9D040EA74
:100EF0000C0093F0000F01F0004C02BF490011F408
:100F0000000F013BF9D041EA0C0195E70CEAD153FF
:100F100092EA0C0F08D142027FF47DAF93EA0C0FE6
:100F20007FF470AF084676E793EA0C0F04D14B02CA
:100F30003FF44CAF08466EE730F0004C18BF31F07C
:100F4000004CCAD130F000427FF45CAF31F0004376
:100F50007FF43CAF5FE700BF42000ED2B2F1FE4F1C
:100F60000BD34FF09E03B3EB126209D44FEA002378
:100F700043F0004323FA02F070474FF0000070473F
:100F800012F1610F01D1420202D14FF0FF307047E0
:100F90004FF00000704700BF53B94AB9002908BF9D
:100FA00000281CBF4FF0FF314FF0FF3000F074B944
:100FB000ADF1080C6DE904CE00F006F8DDF804E0B0
:100FC000DDE9022304B070472DE9F047089E0D4685
:100FD00004468846002B4DD18A42944668D9B2FA1D
:100FE00082F252B101FA02F3C2F1200120FA01F1BA
:100FF0000CFA02FC41EA030894404FEA1C45210C1C
:10100000B8FBF5FE1FFA8CF705FB1E8341EA03438C
:101010000EFB07F199420BD91CEB03030EF1FF30D5
:1010200080F01E81994240F21B81AEF1020E6344B2
:101030005B1AA4B2B3FBF5F005FB103344EA03449A
:1010400000FB07F7A7420AD91CEB040400F1FF33A9
:1010500080F00881A74240F2058164440238E41B15
:1010600040EA0E4000211EB1D4400023C6E90043EF
:10107000BDE8F0878B4208D9002E00F0EE800021F9
:10108000C6E900050846BDE8F087B3FA83F10029F8
:101090004AD1AB4202D3824200F2F980841A65EB56
:1010A000030301209846002EE2D0C6E90048DFE79E
:1010B00002B9FFDEB2FA82F2002A40F09180A1EB81
:1010C0000C054FEA1C471FFA8CFE0121B5FBF7F314
:1010D00007FB1350250C45EA00450EFB03F0A84220
:1010E00008D91CEB050503F1FF3802D2A84200F233
:1010F000CB8043462D1AA4B2B5FBF7F007FB105581
:1011000044EA05440EFB00FEA64508D91CEB040486
:1011100000F1FF3502D2A64500F2BB802846A4EBC1
:101120000E0440EA03409EE7C1F120078B4022FAFB
:1011300007FC4CEA030C20FA07F405FA01F31C4300
:10114000FD404FEA1C4900FA01F3B5FBF9F8200C09
:101150001FFA8CFE09FB185540EA054508FB0EF006
:10116000A84202FA01F20BD91CEB050508F1FF3A7F
:1011700080F08880A84240F28580A8F1020865448A
:101180002D1AA4B2B5FBF9F009FB105544EA054548
:1011900000FB0EFEAE4508D91CEB050500F1FF343F
:1011A0006CD2AE456AD90238654440EA0840A0FBDB
:1011B0000294A5EB0E05A542C846A64656D353D0C9
:1011C0005EB1B3EB080265EB0E0505FA07F722FAEC
:1011D00001F3CD401F43C6E900750021BDE8F0874B
:1011E000C2F1200320FA03F10CFA02FC25FA03F302
:1011F00095400D434FEA1C471FFA8CFEB3FBF7F1F5
:1012000007FB11302B0C43EA004301FB0EF0984220
:1012100004FA02F408D91CEB030301F1FF382FD2C2
:1012200098422DD9023963441B1AADB2B3FBF7F0D3
:1012300007FB103345EA034500FB0EF3AB4208D928
:101240001CEB050500F1FF3816D2AB4214D9023869
:101250006544ED1A40EA014138E73146304607E778
:101260008646E5E61846FAE64B45A9D2B9EB0208F0
:1012700064EB0C0E0138A3E74046EAE7204694E70A
:101280004146D1E7D0467BE7023B654432E708465A
:1012900009E76444023842E7704700BF844641EAE8
:1012A000000313F003036DD1403A41D351F8043BDE
:1012B00040F8043B51F8043B40F8043B51F8043B30
:1012C00040F8043B51F8043B40F8043B51F8043B20
:1012D00040F8043B51F8043B40F8043B51F8043B10
:1012E00040F8043B51F8043B40F8043B51F8043B00
:1012F00040F8043B51F8043B40F8043B51F8043BF0
:1013000040F8043B51F8043B40F8043B51F8043BDF
:1013100040F8043B51F8043B40F8043B51F8043BCF
:1013200040F8043B51F8043B40F8043B403ABDD23E
:10133000303211D351F8043B40F8043B51F8043BE0
:1013400040F8043B51F8043B40F8043B51F8043B9F
:1013500040F8043B103AEDD20C3205D351F8043B6F
:1013600040F8043B043AF9D2043208D0D2071CBF3B
:1013700011F8013B00F8013B01D30B880380604664
:10138000704700BF082A13D38B078DD010F00303DA
:101390008AD0C3F10403D21ADB071CBF11F8013B4A
:1013A00000F8013B80D331F8023B20F8023B7BE799
:1013B000043AD9D3013A11F8013B00F8013BF9D2C4
:1013C0000B7803704B7843708B788370604670475E
:1013D000000000000000000000000000000000000D
:1013E00000000000000000000000000000000000FD
:1013F00000000000000000000000000000000000ED
:1014000090F800F06DE9024520F007016FF0000C44
:1014100010F0070491F820F040F049804FF00004EC
:101420006FF00700D1E9002391F840F000F10800C7
:1014300082FA4CF2A4FA8CF283FA4CF3A2FA8CF3FF
:101440004BBBD1E9022382FA4CF200F10800A4FA66
:101450008CF283FA4CF3A2FA8CF3E3B9D1E90423BA
:1014600082FA4CF200F10800A4FA8CF283FA4CF3F1
:10147000A2FA8CF37BB9D1E9062301F1200182FAAB
:101480004CF200F10800A4FA8CF283FA4CF3A2FAB1
:101490008CF3002BC6D0002A04BF04301A4612BABF
:1014A000B2FA82F2FDE8024500EBD2007047D1E9C2
:1014B000002304F00305C4F100004FEAC50514F051
:1014C000040F91F840F00CFA05F562EA05021CBF22
:1014D00063EA050362464FF00004A9E7000000003C
:1014E00001F0FF01102A2BDB10F0070F08D010F8D5
:1014F000013B013A8B422DD010F0070F42B3F6D1D9
:10150000F0B441EA012141EA014122F007047FF0F1
:1015100000070023F0E80256083C85EA010586EA48
:10152000010685FA47F5A3FA87F586FA47F6A5FA84
:1015300087F68EB9EED1F0BC01F0FF0102F0070290
:1015400032B110F8013B013A83EA010313B1F8D13B
:101550000020704701387047002D06BF354603381C
:10156000073815F0010F07D1013015F4807F02BF55
:10157000013015F4C03F0130F0BC0138704700BFA6
:101580004FF0FF3C06E000BF4FF0010C02E000BF4F
:101590004FF0010C4DF804CD4FEA410C7FEA6C5C32
:1015A0004FEA430C18BF7FEA6C5C1BD001B050EAD5
:1015B000410C0CBF52EA430C91EA030F02BF90EAC0
:1015C000020F0020704710F1000F91EA030F58BF7F
:1015D000994208BF90422CBFD8176FEAE37040F0E1
:1015E000010070474FEA410C7FEA6C5C02D150EA7F
:1015F000013C07D14FEA430C7FEA6C5CD6D152EA3A
:10160000033CD3D05DF8040B704700BF84461046FE
:1016100062468C461946634600E000BF01B5FFF7FD
:10162000B7FF002848BF10F1000F01BD4DF808EDCD
:10163000FFF7F4FF0CBF012000205DF808FB00BF9E
:101640004DF808EDFFF7EAFF34BF012000205DF8F8
:1016500008FB00BF4DF808EDFFF7E0FF94BF012045
:1016600000205DF808FB00BF4DF808EDFFF7CEFF46
:1016700094BF012000205DF808FB00BF4DF808ED85
:10168000FFF7C4FF34BF012000205DF808FB00BF56
:101690004FEA410C7FEA6C5C02D150EA013C0AD16E
:1016A0004FEA430C7FEA6C5C02D152EA033C02D160
:1016B0004FF0000070474FF0010070474FEA4102C1
:1016C00012F5001215D211D56FF47873B3EB625294
:1016D00012D94FEAC12343F0004343EA505311F0BB
:1016E000004F23FA02F018BF404270474FF000004D
:1016F000704750EA013005D111F0004008BF6FF08B
:10170000004070474FF00000704700BF2DE9F041E6
:101710008AB0002405940694079408940994454BD4
:10172000D3F8E02042F48072C3F8E020D3F8E02040
:1017300002F480720092009AD3F8E02042F0020294
:10174000C3F8E020D3F8E02002F002020192019AEF
:10175000D3F8E02042F04002C3F8E020D3F8E020C4
:1017600002F040020292029AD3F8E02042F0100206
:10177000C3F8E020D3F8E02002F010020392039AAD
:10178000D3F8E02042F00102C3F8E020D3F8E030C3
:1017900003F001030493049BDFF89C8001221146AF
:1017A000404601F0D8FF254E01220321304601F0CA
:1017B000D2FF234F01224FF4C041384601F0CBFF46
:1017C0000125059506950795089405A9404601F061
:1017D000A7FE0323059306950795089405A93046AF
:1017E00001F09EFE4FF4C0430593069507950894BB
:1017F00005A9384601F094FE182305934FF4881389
:101800000693079505A9304601F08AFE2246214637
:10181000092000F0E9FD092000F01CFE22462146C7
:101820000A2000F0E1FD0A2000F014FE0AB0BDE835
:10183000F08100BF0044025800040258001802580A
:101840000010025808B50A4B1B785BB10122114603
:10185000084801F080FF01224FF40051064801F0D2
:101860007AFF08BD00220121024801F074FFF2E76F
:1018700000000024000402580014025808B5012397
:101880008340DBB20A4A126813420AD00121094B95
:1018900019700A46084801F05EFF084805F0BCFCD4
:1018A00008BD074805F0B8FC024B00221A70F7E7A4
:1018B000EC0B0024F40B00240018025854D000084C
:1018C0006CD0000810B5402802D0802814D010BD7C
:1018D00008211B4801F038FF0028F8D1194C217865
:1018E000194805F037FC23780133DBB22370202B35
:1018F000EDD901222270EAE71021114801F024FFFE
:101900000028E4D1114C2178114805F023FC2078FF
:101910000C4B1B78984203D90E4805F07DFCD6E7A6
:10192000FFF7ACFF094A13780133DBB21370202BA9
:10193000CDD9134601221A70074B00221A60C6E760
:1019400000180258E409002484D00008E5090024A6
:1019500098D00008A8D00008EC0B002408B5034676
:10196000054A4021054801F005FB10B9024B987B60
:1019700008BD0020FCE700BFE8090024100A00248D
:1019800010B5044601280AD002280ED008B120461E
:1019900010BD01224FF400510B4801F0DCFE002283
:1019A0004FF40051084801F0D6FE084B1B78002B7D
:1019B000EDD0074B1B78002BE9D100224FF40051EA
:1019C000014801F0C8FEE2E700140258E4090024CF
:1019D000E509002402681C4B9A4200D0704710B5FC
:1019E0001A4BDB780D2B05D004221849184805F056
:1019F0007DFA10BD154B1878303818BF0120FFF75D
:101A0000BFFFE8B9114B5B78303BDBB2092BEBD859
:101A10000E4B9B782F2BE7D9392BE5D80B4C0023A5
:101A2000E37021460B4805F095FB2378303B03EB30
:101A300083036278303A02EB4303074A1360D3E72B
:101A4000064805F087FBCFE700100140F00B0024AB
:101A5000580B0024E4D0000804000024D0D0000873
:101A600072B6FEE710B588B02148224B0360002310
:101A70008360C36003744374837410224261012243
:101A800082610221C161016242628262C2620263BA
:101A900043638363C3630364042242648364C26454
:101AA000036542658365C36503664366826601F02C
:101AB000BBF8C0B9002300930193022202920122D5
:101AC0000392049305936946094801F0F7F960B958
:101AD000074C204601F033FA00220121204601F094
:101AE00039FB08B010BDFFF7BBFFFFF7B9FF00BF20
:101AF000100A002400A0004008B50748074B036007
:101B00000023436040F6FF73C360836001F038FE3A
:101B100000B908BDFFF7A4FFB00A00240048005830
:101B200000B589B0002304930593069307930193AE
:101B3000029303931548164A0260436083604FF690
:101B4000FF72C26003614361836103F005FEB0B9B7
:101B50004FF48053049304A90C4803F039FE80B974
:101B6000002301930293039301A9084803F0CCFEDC
:101B700048B9064803F026FD09B05DF804FBFFF7FD
:101B80006FFFFFF76DFFFFF76BFF00BFC00A002478
:101B90000000014000B589B000230493059306932B
:101BA000079301930293039314484FF0804202601D
:101BB000436083604FF0FF32C2600361836103F0D2
:101BC000CBFDA8B94FF48053049304A90B4803F04C
:101BD000FFFD78B900230193039301A9074803F09F
:101BE00093FE48B9054803F0EDFC09B05DF804FB2D
:101BF000FFF736FFFFF734FFFFF732FF0C0B00242F
:101C000008B51848184B03604FF4E13343600023D4
:101C10008360C36003610C2242618361C36103621C
:101C20004362836205F090F898B900210D4805F0F1
:101C3000CBF980B900210B4805F0EBF968B90948E8
:101C400005F0A3F958B904220849064805F04EF9F1
:101C500008BDFFF705FFFFF703FFFFF701FFFFF7E1
:101C6000FFFE00BF580B002400100140F00B0024C1
:101C700000B59DB04C22002109A805F019FA2022D8
:101C8000002101A805F014FA022001F0B3FD0023A1
:101C90000093274BDA6A22F00102DA62DB6A03F072
:101CA00001030093234A936923F4404343F48043A0
:101CB0009361936903F440430093009B1D4B9B6920
:101CC00013F4005FFAD00A23099301230C934022F6
:101CD0000D920E9302231293002213920422149267
:101CE0000922159216930322179218930C22199227
:101CF0001A934FF440631B9309A801F0A5FD98B90E
:101D00003F230193002302930393049305930693C7
:101D10004FF4806207920893012101A802F0FAF9BA
:101D200020B91DB05DF804FBFFF79AFEFFF798FE9F
:101D3000000400580048025808B500F0FDFAFFF70B
:101D400097FFFFF7E3FCFFF78DFEFFF7D5FEFFF7E8
:101D5000E7FEFFF71FFFFFF753FFFFF773FD0122B9
:101D6000094B1978094805F0F5F904220849094892
:101D700005F0BCF8084801F037FD04220449054885
:101D800005F0B4F8F6E700BF00000024FCD000081E
:101D9000F00B0024580B0024B00A0024234B83428C
:101DA00000D0704700B583B011F0010F06D168462E
:101DB000FFF7D4FD20B903B05DF804FBFFF750FE38
:101DC0001B4805F029FA9DF802300D2BF3D19DF840
:101DD00000302F2BEFD9392BEDD89DF801302F2B68
:101DE000E9D9392BE7D800238DF80230694611482C
:101DF00005F0B0F99DF800209DF8013002EB820259
:101E000003EB4203DBB2A3F11001C9B2113BDBB219
:101E10001F2BD0D84B1E01219940074B1A68114344
:101E20001960064805F096F9C5E700BF100A0024BE
:101E300028D1000848D10008EC0B00245CD1000830
:101E4000022801D80120704708B505F007F90923D9
:101E50000360002008BD000010B5013801280AD831
:101E600014464FF0FF3392B20748006804F014FEA6
:101E700040B9204610BD05F0F1F8092303604FF08A
:101E8000FF30F7E70520F5E7F80B0024022801D81A
:101E90000020704708B505F0E1F8092303604FF012
:101EA000FF3008BD08B505F0D9F8092303604FF0ED
:101EB000FF3008BD08B548B94FF0FF33012208488C
:101EC000006804F051FE40B9012008BD05F0C6F8D5
:101ED000092303604FF0FF30F7E70520F5E700BF67
:101EE000F80B002408B5022804D84FF400534B60C7
:101EF000002008BD05F0B2F809230360F8E70000F0
:101F000082B0074BD3F8F42042F00202C3F8F42069
:101F1000D3F8F43003F002030193019B02B0704741
:101F20000044025870B5BAB004460021359136918C
:101F3000379138913991C02204A805F0B9F8226888
:101F4000314B9A4201D03AB070BD4FF400420023A9
:101F5000CDE904234FF08053209304A802F076FBD0
:101F600000284ED1294BD3F8EC2042F48072C3F8FC
:101F7000EC20D3F8EC2002F480720192019AD3F89D
:101F8000E02042F48072C3F8E020D3F8E02002F4AD
:101F900080720292029AD3F8E02042F00102C3F864
:101FA000E020D3F8E03003F001030393039B4FF4E8
:101FB0000073359302263696002437943894092509
:101FC000399535A9124801F0ABFA4FF48053359397
:101FD000369637943894399535A90E4801F0A0FA11
:101FE00022462146132000F0FFF9132000F032FAB8
:101FF00022462146152000F0F7F9152000F02AFAB4
:10200000A1E7FFF72DFDADE700A000400044025816
:10201000002002580000025882B00368114A93421F
:1020200004D0B3F1804F0FD002B070470E4BD3F8FD
:10203000F02042F00102C3F8F020D3F8F03003F0B2
:1020400001030093009BEFE7074BD3F8E82042F031
:102050000102C3F8E820D3F8E83003F0010301934C
:10206000019BE1E7000001400044025810B5B8B000
:102070000446002133913491359136913791C02235
:1020800002A805F015F822681F4B9A4201D038B01B
:1020900010BD01220023CDE9022302A802F0D6FAE6
:1020A00078BB1A4BD3F8F02042F01002C3F8F020AE
:1020B000D3F8F02002F010020092009AD3F8E0204A
:1020C00042F00202C3F8E020D3F8E03003F002034C
:1020D0000193019B4FF44043339302233493002434
:1020E000359436940423379333A9094801F018FA3C
:1020F00022462146252000F077F9252000F0AAF994
:10210000C5E7FFF7ADFCCCE70010014000440258E2
:1021100000040258FEE7FEE7FEE7FEE7FEE7704731
:102120007047704708B500F035F908BD08B50820BC
:1021300001F017FB08BD08B5102001F012FB08BD27
:1021400008B5024801F05EF808BD00BF100A00247F
:1021500008B5024801F056F808BD00BF100A002477
:1021600008B5024803F06CFC08BD00BF580B002402
:102170000120704708B504F071FF162303604FF08B
:10218000FF3008BD08B54FF0FF31FFF7F3FFFEE762
:1021900010B503460C4A0D490D48006840B10C4883
:1021A00000680344521A934206D8094A136010BDCE
:1021B0000748084C0460F2E704F050FF0C2303606A
:1021C0004FF0FF30F3E700BF0000082400040000D8
:1021D000FC0B0024500C0024244B1B6803F00F035D
:1021E000062B06D8214A136823F00F0343F0070398
:1021F00013601F4B1A6842F001021A6000221A6134
:1022000019681C4A0A401A60184B1B6813F0080F23
:1022100006D0164A136823F00F0343F00703136038
:10222000134B00229A61DA611A62134999621349C9
:10223000D962134919635A639963DA6319645A645A
:10224000196821F4802119601A660E4B1A680E4B2A
:102250001340B3F1005F03D20C4B0122C3F80821F5
:102260000B4B43F2D2021A60704700BF00200052AD
:10227000004402587FEDF6EA000202020000FF016E
:10228000800201010010005C0000FFFF008000518F
:1022900000400052DFF834D0FFF79EFF0C480D4994
:1022A0000D4A002302E0D458C4500433C4188C42B1
:1022B000F9D30A4A0A4C002301E013600432A24217
:1022C000FBD304F0D1FEFFF737FD70470000082470
:1022D00000000024C8090024D4D50008C80900243F
:1022E0004C0C0024FEE70000104B1B780BB90120BA
:1022F000704710B504464FF47A70B0FBF3F30C4A04
:102300001068B0FBF3F000F0B3F868B90F2C01D9F6
:1023100001200AE0002221464FF0FF3000F064F86F
:10232000044B1C60002000E0012010BD10000024C0
:10233000080000241400002410B5032000F042F827
:1023400001F0DCFD0F498B69C3F303230E4AD35C14
:1023500003F01F03D8408B6903F00F03D35C03F035
:102360001F0320FA03F3094A1360094B18600F207A
:10237000FFF7BAFF10B10124204610BD0446FFF755
:10238000BFFDF9E70044025878D100080C00002492
:1023900008000024034B1B78034A11680B441360A8
:1023A000704700BF10000024000C0024014B186887
:1023B000704700BF000C0024014B1868000C7047E8
:1023C0000010005C0649CB6823F4E0631B041B0C7F
:1023D000000200F4E0600343024A1A43CA607047F7
:1023E00000ED00E00000FA0500B5174BDB68C3F311
:1023F0000223C3F1070CBCF1040F28BF4FF0040CFB
:1024000003F1040EBEF1060F14D9033B4FF0FF3E5B
:102410000EFA0CFC21EA0C0199400EFA03F322EAB1
:1024200003031943002807DB0901C9B2074B1954FC
:102430005DF804FB0023E9E700F00F000901C9B2D1
:10244000034B1954F4E700BF00ED00E000E400E0A6
:1024500014ED00E0002807DB00F01F024009012313
:102460009340024A42F82030704700BF00E100E08C
:102470000138B0F1807F0BD24FF0E0235861054A5C
:10248000F02182F823100020986107221A6170471A
:102490000120704700ED00E070B50446FFF786FFAD
:1024A000002C00F09181054694F83530DBB2022B08
:1024B00006D080236365002384F83430012070BD8A
:1024C00023688C498C4A934218BF8B4230D0183213
:1024D00093422DD0183293422AD01832934227D0FB
:1024E0001832934224D01832934221D018329342AA
:1024F0001ED002F5567293421AD01832934217D06A
:102500001832934214D01832934211D018329342A9
:102510000ED0183293420BD01832934208D01832A2
:10252000934205D01A6822F00E021A60266809E06C
:102530001A6822F01E021A602268536923F0800391
:102540005361266823686B496B4A934218BF8B42DC
:1025500042D0183293423FD0183293423CD01832C6
:10256000934239D01832934236D01832934233D046
:102570001832934230D002F5567293422CD0183262
:10258000934229D01832934226D01832934223D056
:102590001832934220D0183293421DD01832934201
:1025A0001AD01832934217D0544A934214D014329E
:1025B000934211D0143293420ED0143293420BD076
:1025C0001432934208D01432934205D0143293420D
:1025D00002D01432934204D1226E136823F4807324
:1025E000136023684349444A934218BF8B422FD05B
:1025F000183293422CD01832934229D01832934289
:1026000026D01832934223D01832934220D0183269
:1026100093421DD002F55672934219D0183293425C
:1026200016D01832934213D01832934210D0183279
:1026300093420DD0183293420AD01832934207D0F9
:102640001832934204D01A6822F001021A6003E0A3
:102650001A6822F001021A60336813F0010F0ED0DD
:10266000FFF7A4FE431B052BF6D920236365032344
:1026700084F83530002384F8343001201FE72368C4
:102680001C491D4A934218BF8B4239D018329342DD
:1026900036D01832934233D01832934230D01832A9
:1026A00093422DD0183293422AD01832934227D029
:1026B00002F55672934223D01832934220D018323A
:1026C00093421DD0183293421AD01832934217D039
:1026D0001832934214D01832934211D018329342D8
:1026E0000ED0A16DE36D03F01F02012393404B60F8
:1026F0000DE000BF100002402800024008540258BC
:10270000A16DE36D03F01F023F2393408B602368AC
:102710002E492F4A934218BF8B4242D0183293421F
:102720003FD0183293423CD01832934239D01832FD
:10273000934236D01832934233D01832934230D07D
:1027400002F5567293422CD01832934229D0183297
:10275000934226D01832934223D01832934220D08D
:10276000183293421DD0183293421AD01832934235
:1027700017D0184A934214D01432934211D0143215
:1027800093420ED0143293420BD01432934208D0AD
:102790001432934205D01432934202D01432934241
:1027A0000BD1636EA26E5A60E36E33B11A6822F4E5
:1027B00080721A60236F626F5A60012384F835308B
:1027C000002084F834007AE6012078E61000024008
:1027D0002800024008540258002800F0298108B55A
:1027E000024690F83530DBB2022B03D080234365DC
:1027F000012008BD0368904890498B4218BF83426E
:102800000CBF0121002166D03030834263D01830E4
:10281000834260D0183083425DD0183083425AD052
:102820001830834257D01830834254D000F5567088
:10283000834250D0183083424DD0183083424AD062
:102840001830834247D01830834244D01830834236
:1028500041D0183083423ED0183083423BD01968B3
:1028600021F00E0119601368A0F5956073498B4241
:1028700018BF83426AD072498B4267D018318B42AD
:1028800064D018318B4261D018318B425ED0183140
:102890008B425BD018318B4258D001F556718B4278
:1028A00054D018318B4251D018318B424ED0183150
:1028B0008B424BD018318B4248D018318B4245D0D7
:1028C00018318B4242D018318B423FD0196821F029
:1028D000010119603EE0042082F8350081BB584AAE
:1028E00093422DD0183293422AD01832934227D0E7
:1028F0001832934224D01832934221D01832934296
:102900001ED002F5567293421AD01832934217D055
:102910001832934214D01832934211D01832934295
:102920000ED0183293420BD01832934208D018328E
:10293000934205D01A6822F001021A60002058E77D
:102940001A6822F001021A60002052E7196821F08B
:10295000010119601368384838498B4218BF834217
:1029600042D018318B423FD018318B423CD01831C5
:102970008B4239D018318B4236D018318B4233D04C
:1029800018318B4230D001F556718B422CD0183162
:102990008B4229D018318B4226D018318B4223D05C
:1029A00018318B4220D018318B421DD018318B4208
:1029B0001AD018318B4217D022498B4214D01431CF
:1029C0008B4211D014318B420ED014318B420BD07C
:1029D00014318B4208D014318B4205D014318B4214
:1029E00002D014318B4217D1116E0B6823F480731F
:1029F0000B60906DD36D03F01F0101238B4043608A
:102A0000536E916E5960D36E33B1196821F48071A1
:102A10001960136F516F5960012382F8353000231C
:102A200082F83430136D2BB1104698470020E0E651
:102A3000012070470020DCE6100002402800024020
:102A4000400002400854025810B4446B0368D3F8A5
:102A50008410724A114041EA8401C3F8841003686B
:102A6000D3F8841021F47F01D0F838C041EA0C413A
:102A7000C3F88410836B23440468D4F88810114091
:102A800041EA8301C4F888100468D4F8881021F45E
:102A9000FE01D0F83CC041EA0C41C4F88810C16B7B
:102AA00003EB41030468D4F8A010114041EA83010C
:102AB000C4F8A0100468D4F8A01021F4FE01D0F8E6
:102AC00040C041EA0C41C4F8A010016C446C04FB06
:102AD00001330468D4F8B010114041EA8301C4F80E
:102AE000B0100468D4F8B01021F4FE01D0F848C04A
:102AF00041EA0C41C4F8B010816CC46C04FB013392
:102B00000468D4F8AC10114041EA8301C4F8AC1059
:102B1000016D446D04FB01330468D4F8F0101140DA
:102B200041EA8301C4F8F0100468D4F8F01021F4ED
:102B30007C11D0F858C041EA0C41C4F8F010816D06
:102B400003EB41030468D4F8C0100A4042EA83034F
:102B5000C4F8C0300268D2F8C03023F47C13C16DD1
:102B600043EA0143C2F8C0300268D2F8C03023F013
:102B70007C53016E43EA0163C2F8C030436B284ABC
:102B80001A449200C266836B02EB83030367C16B36
:102B900003EBC1034367016C446C04FB01F103EBDD
:102BA00081038367816CC46C04FB01F103EB810337
:102BB000C367016D446D04FB01F103EB8103C0F8B1
:102BC0008030816D03EBC103C0F88430816EC46D29
:102BD00001FB04FC03EB8C03C0F88830046E04FB9B
:102BE00001F103EB8103C0F890300E498B420DD9FF
:102BF000D0F89C3043F02003C0F89C30032380F8C9
:102C00009830012007E0002342F8043BD0F89030D0
:102C10009342F8D8002010BC704700BF0300FFFFAC
:102C2000002B0010FCD3004030B595B004464C2278
:102C3000A04901A8FEF732FB002C00F03881236880
:102C40009D4A934220D094F898300BB32268936940
:102C500023F010039361FFF7A9FB054623689A69E7
:102C600012F0080F1AD0FFF7A1FB431B0A2BF5D96E
:102C7000D4F89C3043F00103C4F89C30032384F85B
:102C80009830012015B030BD03F580736360DAE73A
:102C900084F899302046FFF745F9D7E79A6942F062
:102CA00001029A61FFF782FB054623689A6912F0D8
:102CB000010F0FD1FFF77AFB401B0A28F5D9D4F892
:102CC0009C3043F00103C4F89C30032384F898300F
:102CD0000120D7E79A6942F002029A61237C012B16
:102CE00040D02268936943F040039361637C012BD9
:102CF0003ED02268936923F480439361A37C012B27
:102D00003CD02268936943F48053936122689369AD
:102D100023F44073A1680B4393612268936923F005
:102D2000A40393612268136923F010031361E3681D
:102D3000012B29D0002B2CD0022B00F09B80226885
:102D4000936943F0800393612268136943F0100391
:102D50001361E368032B1CD12268936943F02003BD
:102D6000936116E02268936923F040039361BDE705
:102D70002268936943F480439361BFE722689369B3
:102D800023F480539361C1E72268936943F00403FD
:102D90009361A3695A1EE369013B1B0243EA426344
:102DA000226A013A13436269013A216843EA024305
:102DB000CB61A368B3F5407F62D0236E33B1226844
:102DC000D2F8C030616E0B43C2F8C030E36D226EA2
:102DD000D3420DD02168D1F8C83023F00703A26E8A
:102DE00014A800EB820252F84C2C1343C1F8C830EF
:102DF000236C6BB12168D1F8BC3023F00703626CFF
:102E000014A800EB820252F84C2C1343C1F8BC30DA
:102E1000A36C73B12168D1F8BC3023F07003E26C6D
:102E200014A800EB820252F84C2C43EA0213C1F8BA
:102E3000BC30236D73B12168D1F8BC3023F4E0635A
:102E4000626D14A800EB820252F84C2C43EA022374
:102E5000C1F8BC302268184B9A4222D00023C4F833
:102E60009430C4F89C30012384F898302046FFF752
:102E7000EBFD07E72268936943F02003936188E73D
:102E8000A36A013BE26A013A43EA0223226B013A58
:102E900043EA0213626A013A216843EA0243CB60C3
:102EA0008BE76268936823F003039360D6E7012001
:102EB000E8E600BF08D0000800A0004090F8983075
:102EC000013BDBB2012B07D9D0F89C3043F0020361
:102ED000C0F89C3001207047CB680A68D2B9072B34
:102EE0000ED08A68DB0643EA82730A6943EA02432A
:102EF0004A691343C26E496842F821300020704786
:102F00000A69CB691B0243EA02438A69134343F00F
:102F10006053EFE70A6942EA4372072B0DD04B6911
:102F2000D1F808C043EA8C73006F496800EBC10C0C
:102F300040F83120CCF80430E0E78B69F4E790F8F2
:102F40009830DBB2012B07D0D0F89C3043F004035B
:102F5000C0F89C3001207047022380F89830026846
:102F6000936923F0010393610023C0F89C30184655
:102F70007047000090F898C05FFA8CFCBCF1020F1B
:102F800040F0DE8070B540290CD041293BD0046D63
:102F90008C4269D8D0F89C3043F02003C0F89C30B4
:102FA0000120BFE00468D4F8A05015F4FE0F0CD047
:102FB000D4F8A45015F07F0F0FD1D0F89C3043F413
:102FC0008073C0F89C300120ACE0D0F89C3043F016
:102FD0002003C0F89C300120A4E0D4F8A450C5F32D
:102FE000006615F0807F02D0D4F8A0500026D4F8F7
:102FF000A440C4F305242644456F446C06FB04F446
:1030000005EB840C37E00468D4F8B05015F4FE0FDB
:103010000CD0D4F8B45015F07F0F0FD1D0F89C30FD
:1030200043F48073C0F89C3001207BE0D0F89C30E2
:1030300043F02003C0F89C30012073E0D4F8B45072
:10304000C5F3006615F0807F02D0D4F8B05000269A
:10305000D4F8B440C4F305242644856FC46C06FB41
:1030600004F405EB840C06E0C56F446D01FB04F429
:1030700005EB840C0026DCF8004004F0804454602A
:1030800074BBDCF80040C4F38A441460DCF80040F0
:1030900004F000549460DCF8004004F00044146133
:1030A000BCF80440D461DCF8044004F47024D4601B
:1030B000DCF8044004F480145461DCF8044004F4A7
:1030C000001494619CF8074004F07F041462DCF85B
:1030D0000440E40F54620CF1080E4FF0000C0BE0BA
:1030E000DCF8004024F060441460CFE71EF80C4088
:1030F00003F80C400CF1010CD489154D2C5D64458E
:10310000F4D840290AD041290DD01F290FD80268D0
:10311000012303FA01F1C2F8981002E00368C3F832
:10312000A860002070BD0368C3F8B860F9E701F03B
:103130001F010268012303FA01F1C2F89C10F0E7B5
:10314000D0F89C3043F00803C0F89C300120704751
:1031500088D1000890F89830013BDBB2012B07D9E9
:10316000D0F89C3043F00203C0F89C300120704737
:1031700010B403689C6D0C4223D1DC6D44F0010453
:10318000DC6511F4007F05D00468D4F8E030134307
:10319000C4F8E03011F4806F05D00468D4F8E4304E
:1031A0001A43C4F8E4200068436D0C4A0A401343F4
:1031B00043650B4A536943EA91715161002010BC89
:1031C00070479C6D31EA040402D00324DC65D8E723
:1031D000DC6D44F00204DC65D3E700BFFFFFCF3FA6
:1031E00000A80040704770477047704770477047AD
:1031F0007047704770477047704770477047704717
:10320000704770472DE9F04F83B00446B04B1A6900
:103210005B699B0703EA8273019303681A6D02F4EA
:10322000704A5A6D0AEA020A1A6D02F00F095A6DC5
:1032300009EA02091A6D02F0F0085A6D08EA02085C
:103240001E6D06F071565A6D16401F6D07F06077BF
:103250005A6D17405D6DD3F850B015F4807F02D0E1
:103260001BF4807F64D115F4806F02D01BF4806F53
:1032700067D1019B002B74D1BAF1000F7CD1B9F159
:10328000000F40F08580B8F1000F40F08D8015F4FC
:10329000006F03D01BF4006F40F0928015F4007FA4
:1032A00003D01BF4007F40F0968015F4002F03D06C
:1032B0001BF4002F40F09F8015F4803F03D01BF4D7
:1032C000803F40F0A38015F4802F03D01BF4802FA3
:1032D00040F0A78015F4003F0FD01BF4003F0CD046
:1032E00023684FF400321A65794B00221A61D4F832
:1032F0009C3043F08003C4F89C30002F40F09C8049
:103300004EB123681E65B20F714B1A61D4F89C3020
:103310001E43C4F89C6022686E4B9A4200F096806F
:10332000D4F89C30002B40F0F78003B0BDE8F08F5C
:103330004FF480721A65664B00221A61FFF75BFF3B
:1033400091E72368D3F8DC10D3F8E4204FF48060D1
:1033500018655F4B0020186111402046FFF747FFBA
:1033600087E7236800221A6501998A0F584B1A6172
:103370002046FFF737FF7FE72368C3F850A04FEAE6
:103380009A72534B1A6151462046FFF72CFF76E79D
:103390002368C3F850904FEA99724D4B1A61494621
:1033A0002046FEF7FBFC6EE72368C3F850804FEA27
:1033B0009872474B1A6141462046FFF715FF66E7B2
:1033C00023684FF400621A65414B00221A612046BF
:1033D000FFF70BFF62E72368D3F8D810D3F8E0209B
:1033E0004FF4007018653A4B0020186111402046D8
:1033F000FFF7FCFE59E723684FF400221A65344BAF
:1034000000221A612046FFF7F3FE55E723684FF4C8
:1034100080321A652E4B00221A612046FFF7E9FE22
:1034200051E723684FF480221A65294B00221A6164
:103430002046FFF7DFFE4DE723681F65BA0F244BD8
:103440001A6139462046FFF7D8FE59E763689A6843
:1034500012F0030F3FF464AF196A01F00F015A6ACA
:10346000186A00F03008586A08EA00081F6A07F472
:10347000C077586A07401E6A06F4FC46586A064040
:103480001D6A05F4F025586A0540D3F82490D3F856
:1034900020A0114020D1B8F1000F22D119F0400F27
:1034A00002D01AF0400F24D17FBB36B163681E6290
:1034B000D4F89C301E43C4F89C60002D3FF430AF1C
:1034C00063681D62D4F89C301D43C4F89C5027E704
:1034D00000A8004000A0004019622046FFF78EFEC1
:1034E000D9E76368C3F8208041462046FFF787FE8E
:1034F000D4E76368D96BDA6B4020186202F03F02B0
:10350000090C2046FFF77CFECEE763681F62394650
:103510002046FFF776FEC8E72046FFF76DFE04E77A
:1035200070B582B000236EE085685E000324B4406D
:1035300025EA0405CC68B4402C438460446824EA3E
:103540000C0C4C68C4F300149C4044EA0C04446026
:103550006CE0DD08083550F8256003F007044FEAF9
:10356000840C0F2404FA0CF426EA040E0C6904FA05
:103570000CF444EA0E0440F825406FE0092400E012
:10358000002404FA0EF42C430CF1020C6B4D45F8A8
:103590002C404FF0B0442568D44325EA0206D1F808
:1035A00004C01CF4801F01D042EA05064FF0B0456C
:1035B0002E606D6804EA0506D1F804C01CF4001FF3
:1035C00001D042EA05064FF0B0456E60D5F8845050
:1035D00004EA0506D1F804C01CF4003F01D042EA19
:1035E00005064FF0B045C5F88460D5F880502C40F2
:1035F0004E6816F4803F01D042EA05044FF0B04215
:10360000C2F8804001330A6832FA03F400F0938074
:103610004FF0010C0CFA03FC1CEA0202F2D04C68D9
:1036200004F00304013C012C7FF67EAF4C6804F0EB
:103630000304032C0CD0C4685D004FF0030C0CFA9B
:1036400005FC24EA0C0C8C68AC4044EA0C04C46011
:103650004C6804F00304022C3FF47BAF04684FEA8B
:10366000430E4FF0030C0CFA0EFC24EA0C0C4C68D1
:1036700004F0030404FA0EF444EA0C0404604C68F9
:1036800014F4403FBED02E4CD4F8F45045F002055F
:10369000C4F8F450D4F8F44004F002040194019CFE
:1036A0004FEA930C0CF10205244C54F8255003F01A
:1036B00003044FEA840E0F2404FA0EF425EA0405ED
:1036C000204CA0423FF45CAF04F58064A04222D0BD
:1036D00004F58064A04220D004F58064A0421ED08E
:1036E00004F58064A0421CD004F58064A0421AD086
:1036F00004F58064A04218D004F58064A04216D07E
:1037000004F58064A04214D004F58064A0423FF424
:1037100035AF0A2435E7012433E7022431E70324D7
:103720002FE704242DE705242BE7062429E70724A7
:1037300027E7082425E702B070BD00BF0004005849
:1037400000440258000002580369194201D00120C8
:103750007047002070470AB1816170470904816198
:10376000704708B54FF0B043D3F88830034200D11A
:1037700008BD4FF0B043C3F88800FEF7A3F8F7E7A1
:1037800000282FD038B5044603684CF6CC421A60A6
:10379000036845F255521A60036842685A6003682C
:1037A00082689A60FEF702FE05462368DA6812F026
:1037B000070F0BD0FEF7FAFD401B3128F5D923681F
:1037C000DB6813F0070FF0D0032005E01969E26809
:1037D000914202D01A61002038BD4AF6AA221A602E
:1037E0000020F9E70120704703684AF6AA221A6010
:1037F00000207047134BDB6813F0040F07D1114B07
:10380000DB6803F0070383421AD00120704710B52C
:103810000C4AD36823F007031843D060FEF7C6FDB7
:103820000446084B5B6813F4005F07D1FEF7BEFD4A
:10383000001BB0F57A7FF4D9012000E0002010BD14
:103840000020704700480258002800F0398338B53E
:103850000446036813F0010F25D0944A136903F05E
:103860003803926A102B15D0182B0FD06368B3F56C
:10387000803F3FD0002B53D18C4B1A6822F480320A
:103880001A601A6822F480221A6038E002F00302FB
:10389000022AEBD1854B1B6813F4003F03D0636809
:1038A000002B00F00F83236813F0020F00F0A180BB
:1038B0007E4A1369926A13F038035AD0182B55D0F8
:1038C000E368002B00F0DE8078490A6822F01902D4
:1038D00013430B60FEF76AFD0546744B1B6813F03B
:1038E000040F40F0AD80FEF761FD401B0228F4D9C3
:1038F0000320EEE26D4A136843F48033136063687B
:103900002BB3FEF753FD0546684B1B6813F4003FCD
:10391000C9D1FEF74BFD401B6428F5D90320D8E23E
:10392000B3F5A02F09D0614B1A6822F480321A60D7
:103930001A6822F480221A60E1E75C4B1A6842F4AC
:1039400080221A601A6842F480321A60D7E7FEF7C4
:103950002DFD0546554B1B6813F4003FA3D0FEF721
:1039600025FD401B6428F5D90320B2E212F0030FB5
:10397000A6D14E4B1B6813F0040F03D0E368002B55
:1039800000F0A282494A136823F01903E1680B434F
:103990001360FEF70BFD0546444B1B6813F0040F44
:1039A00006D1FEF703FD401B0228F5D9032090E263
:1039B000FEF702FD41F20303984212D82269402A21
:1039C00007D03A494B6823F47C3343EA02334B6017
:1039D0000FE0364A536823F47C3343F400335360DA
:1039E00007E0324A536823F0FE43216943EA01634A
:1039F0005360236813F0100F00F088802B4A13697E
:103A000003F03803926A082B56D0182B50D0E36984
:103A1000002B00F0B880254A136843F08003136040
:103A2000FEF7C4FC0546214B1B6813F4807F40F071
:103A30008880FEF7BBFC401B0228F4D9032048E233
:103A4000FEF7BAFC41F20303984212D82269402AD9
:103A500007D016494B6823F47C3343EA02334B60AA
:103A6000C7E7124A536823F47C3343F400335360AE
:103A7000BFE70E4A536823F0FE43216943EA01631E
:103A80005360B6E7094A136823F001031360FEF799
:103A90008DFC0546054B1B6813F0040FA9D0FEF7FB
:103AA00085FC401B0228F5D9032012E2004402588D
:103AB00002F00302012AAAD1A14B1B6813F4807FF4
:103AC00003D0E369802B40F00182FEF775FC41F2E0
:103AD0000303984212D8226A202A07D098494B68DB
:103AE00023F0F84343EA82634B600FE0944A536843
:103AF00023F0F84343F08043536007E0904AD368D3
:103B000023F07C53216A43EA0163D360236813F0F6
:103B1000080F60D06369002B49D0894A536F43F086
:103B200001035367FEF742FC0546854B5B6F13F0BC
:103B3000020F50D1FEF73AFC401B0228F5D90320B2
:103B4000C7E1FEF739FC41F20303984212D8226A1A
:103B5000202A07D07A494B6823F0F84343EA82636E
:103B60004B60D3E7764A536823F0F84343F0804331
:103B70005360CBE7724AD36823F07C53216A43EA4F
:103B80000163D360C2E76E4A136823F080031360B9
:103B9000FEF70CFC05466A4B1B6813F4807FB5D01A
:103BA000FEF704FC401B0228F5D9032091E1644A8A
:103BB000536F23F001035367FEF7F8FB0546604B94
:103BC0005B6F13F0020F06D0FEF7F0FB401B0228DC
:103BD000F5D903207DE1236813F0200F29D0A369D4
:103BE0009BB1574A136843F480531360FEF7DEFB22
:103BF0000546534B1B6813F4005F1AD1FEF7D6FB42
:103C0000401B0228F5D9032063E14D4A136823F4D1
:103C100080531360FEF7CAFB0546494B1B6813F43B
:103C2000005F06D0FEF7C2FB401B0228F5D9032037
:103C30004FE1236813F0040F21D1636A002B00F0D9
:103C400047813F4A126902F03802182A00F0EE80DC
:103C5000022B79D03A4A136823F080731360FEF781
:103C6000A5FB0446364B1B6813F0007F00F0DC8098
:103C7000FEF79CFB001B0228F4D9032029E1314AFE
:103C8000136843F480731360FEF790FB05462D4BD9
:103C90001B6813F4807F06D1FEF788FB401B642865
:103CA000F5D9032015E1A368012B0AD00BBB244BE7
:103CB0001A6F22F001021A671A6F22F004021A67C3
:103CC00004E01F4A136F43F001031367A36833B383
:103CD000FEF76CFB05461A4B1B6F13F0020FACD1BD
:103CE000FEF764FB401B41F288339842F3D903206E
:103CF000EFE0052B09D0124B1A6F22F001021A6770
:103D00001A6F22F004021A67E0E70D4B1A6F42F0B7
:103D100004021A671A6F42F001021A67D6E7FEF72B
:103D200045FB0546064B1B6F13F0020F85D0FEF7CF
:103D30003DFB401B41F288339842F3D90320C8E091
:103D40000044025800480258694A136823F08073FF
:103D50001360FEF72BFB0546654B1B6813F0007FD5
:103D600006D0FEF723FB401B0228F5D90320B0E064
:103D70005F4B996A5F4A0A40A16AE06A41EA001112
:103D80000A439A62226B013AC2F30802616B01395D
:103D9000490289B20A43A16B0139090401F4FE0109
:103DA0000A43E16B0139090601F0FE410A431A6337
:103DB000DA6A22F00102DA62596B4F4A0A40A16CBA
:103DC00042EAC1025A63DA6A22F00C02216C0A4309
:103DD000DA62DA6A22F00202616C0A43DA62DA6AB3
:103DE00042F48032DA62DA6A42F40032DA62DA6A83
:103DF00042F48022DA62DA6A42F00102DA621A6878
:103E000042F080721A60FEF7D1FA0446384B1B6804
:103E100013F0007F06D1FEF7C9FA001B0228F5D97E
:103E2000032056E0002054E0002052E0304A916A1E
:103E3000106B012B4ED001F00303A26A93424BD1C9
:103E4000C1F30511E36A994248D1C0F30802236B1C
:103E5000013B9A4244D1C0F34622636B013B9A4234
:103E600040D1C0F30642A36B013B9A423CD1C0F360
:103E70000660E36B013B984238D11D4B5B6BC3F38B
:103E8000CC03A26C9A4201D1002022E0184AD36AE6
:103E900023F00103D362FEF789FA0546FEF786FA9E
:103EA000A842FBD0124A516B134B0B40A16C43EA62
:103EB000C1035363D36A43F00103D362002008E0D7
:103EC00001207047012004E0012002E0012000E011
:103ED000002038BD0120FCE70120FAE70120F8E7C7
:103EE0000120F6E70120F4E70120F2E70120F0E7E6
:103EF000004402580CFCFFFF0700FFFFF8B57E4BA3
:103F00001B6903F03803102B00F0F280182B10D03F
:103F100013B17A4C2046F8BD774B1B6813F0200F85
:103F200000F0E880744B1868C0F3C100744CC440C2
:103F3000F0E7714B9D6A05F003059C6AC4F3051414
:103F4000D86A00F001005B6BC3F3CC0303FB00F005
:103F5000FCF75AFE0646002CDCD0012D76D0022D4F
:103F600000F0A4800DB32046FCF74EFE01466548E4
:103F7000FCF756FF0446604B186BC0F30800FCF7D3
:103F800043FE05464FF064513046FCF795FE01466E
:103F90002846FCF789FD4FF07E51FCF785FD014670
:103FA0002046FCF789FE044671E0534B1B6813F072
:103FB000200F29D0504F3B68C3F3C1035048D8406D
:103FC000FCF722FE05462046FCF71EFE0146284669
:103FD000FCF726FF0446386BC0F30800FCF714FE1C
:103FE00005464FF064513046FCF766FE0146284610
:103FF000FCF75AFD4FF07E51FCF756FD0146204676
:10400000FCF75AFE044642E02046FCF7FDFD01465F
:104010003D48FCF705FF0446374B186BC0F308001A
:10402000FCF7F2FD05464FF064513046FCF744FEC4
:1040300001462846FCF738FD4FF07E51FCF734FD71
:1040400001462046FCF738FE044620E02046FCF7F7
:10405000DBFD01462B48FCF7E3FE0446264B186BBC
:10406000C0F30800FCF7D0FD05464FF06451304620
:10407000FCF722FE01462846FCF716FD4FF07E5164
:10408000FCF712FD01462046FCF716FE04461A4BCB
:104090001B6BC3F34623581CFCF7B6FD01462046B4
:1040A000FCF7BEFEFCF758FF044633E72046FCF75A
:1040B000ABFD01461548FCF7B3FE04460E4B186BEA
:1040C000C0F30800FCF7A0FD05464FF064513046F0
:1040D000FCF7F2FD01462846FCF7E6FC4FF07E5166
:1040E000FCF7E2FC01462046FCF7E6FD0446CEE77D
:1040F000074C0FE7024C0DE70044025800093D0051
:104100000090D0030024744A0024744C20BCBE4BA1
:1041100040787D01002800F0328170B50D460446DC
:104120009B4B1B6803F00F038B420BD2984A13681A
:1041300023F00F030B431360136803F00F038B424C
:1041400040F01F81236813F0040F0CD02269914BBB
:104150009B6903F070039A4205D98E498B6923F05D
:1041600070031A438A61236813F0080F0CD0626948
:10417000884BDB6903F070039A4205D98549CB6906
:1041800023F070031A43CA61236813F0100F0CD098
:10419000A269804BDB6903F4E0639A4205D97D494B
:1041A000CB6923F4E0631A43CA61236813F0200F3C
:1041B0000CD0E269774B1B6A03F070039A4205D971
:1041C00074490B6A23F070031A430A62236813F0E0
:1041D000020F0CD0E2686F4B9B6903F00F039A4209
:1041E00005D96C498B6923F00F031A438A61236850
:1041F00013F0010F41D0674A936923F47063A168FB
:104200000B4393616368022B0AD0032B27D0012B49
:104210002CD0604A126812F0040F06D10120ADE0E4
:10422000126812F4003F00F0AE805A490A6922F089
:10423000070213430B61FEF7B9F80646554B1B699D
:1042400003F038036268B3EBC20F16D0FEF7AEF886
:10425000801B41F288339842F0D903208EE04D4A0A
:10426000126812F0007FE0D1012087E0494A12680D
:1042700012F4807FD9D1012080E0236813F0020F6F
:104280000CD0E268434B9B6903F00F039A4205D2BE
:1042900040498B6923F00F031A438A613C4B1B682A
:1042A00003F00F03AB420AD9394A136823F00F0316
:1042B0002B431360136803F00F03AB4265D12368EF
:1042C00013F0040F0CD02269324B9B6903F070038A
:1042D0009A4205D22F498B6923F070031A438A61F1
:1042E000236813F0080F0CD062692A4BDB6903F0D6
:1042F00070039A4205D22749CB6923F070031A4311
:10430000CA61236813F0100F0CD0A269214BDB693E
:1043100003F4E0639A4205D21E49CB6923F4E063BB
:104320001A43CA61236813F0200F0CD0E269194BBD
:104330001B6A03F070039A4205D216490B6A23F0F8
:1043400070031A430A62FFF7D9FD12498B69C3F360
:104350000323114AD35C03F01F03D8408B6903F099
:104360000F03D35C03F01F0320FA03F30B4A13601F
:104370000B4B18600B4B1868FDF7B6FF70BD0120A2
:1043800070470120FAE70120F8E70120F6E700BFB7
:10439000002000520044025878D100080C0000248C
:1043A000080000241400002408B5FFF7A7FD0B4AFD
:1043B0009369C3F303230A49CB5C03F01F0320FA7C
:1043C00003F3926902F00F02885C00F01F0023FAE9
:1043D00000F0044A1060044A136008BD004402580B
:1043E00078D100080C0000240800002408B5FFF76D
:1043F000DBFF054BDB69C3F30213044AD35C03F014
:104400001F03D84008BD00BF0044025878D10008FF
:1044100008B5FFF7C9FF054BDB69C3F30223044A64
:10442000D35C03F01F03D84008BD00BF004402580E
:1044300078D10008404B9B6A03F00303032B79D02B
:1044400070B505460E463C4A136823F0806313603E
:10445000FDF7ACFF0446384B1B6813F0006F06D025
:10446000FDF7A4FF031B022BF5D9032070BD324BCF
:104470009A6A22F47C32296842EA01329A626A68B6
:10448000013AC2F30802A9680139490289B20A4314
:10449000E9680139090401F4FE010A432969013977
:1044A000090601F0FE410A439A63DA6A22F0C0026B
:1044B00069690A43DA62DA6A22F02002A9690A43CA
:1044C000DA62DA6A22F01002DA62D96B1B4A0A4019
:1044D000E96942EAC102DA63DA6A42F01002DA629A
:1044E000C6B91A46DB6A43F40023D362124A136842
:1044F00043F080631360FDF759FF04460E4B1B68C1
:1045000013F0006F14D1FDF751FF001B0228F5D9FD
:104510000320ABE7012E05D0074AD36A43F400130A
:10452000D362E3E7044AD36A43F48013D362DDE73E
:1045300000209BE701207047004402580700FFFF5E
:10454000404B9B6A03F00303032B79D070B50546FB
:104550000E463C4A136823F080531360FDF726FF94
:104560000446384B1B6813F0005F06D0FDF71EFFB2
:10457000031B022BF5D9032070BD324B9A6A22F03F
:104580007C72296842EA01529A626A68013AC2F36F
:104590000802A9680139490289B20A43E968013968
:1045A000090401F4FE010A4329690139090601F0F1
:1045B000FE410A431A64DA6A22F4406269690A43D6
:1045C000DA62DA6A22F40072A9690A43DA62DA6A04
:1045D00022F48072DA62596C1B4A0A40E96942EAA5
:1045E000C1025A64DA6A42F48072DA62C6B91A46C3
:1045F000DB6A43F48003D362124A136843F08053AA
:104600001360FDF7D3FE04460E4B1B6813F0005FEA
:1046100014D1FDF7CBFE001B0228F5D90320ABE730
:10462000012E05D0074AD36A43F08073D362E3E7D3
:10463000044AD36A43F40003D362DDE700209BE71A
:1046400001207047004402580700FFFFF8B50446F8
:10465000036813F0006F30D0836EB3F5001F26D0CF
:104660000ED8EBB1B3F5801F07D102210830FFF758
:10467000E1FE054645B12E4621E0012635461EE005
:10468000B3F5401F09D10025984A136D23F4401358
:10469000A16E0B431365002611E0012635460EE09E
:1046A000924AD36A43F40033D3620025ECE7022137
:1046B0002830FFF745FF0546DCE70026354623682E
:1046C00013F4807F14D0A36D042B32D8DFE803F0FD
:1046D00003232A080800854AD36A43F40033D362CF
:1046E00055BB824A136D23F00703A16D0B4313657D
:1046F000236813F4007F31D0E36D802B4CD020D899
:10470000002B43D0402B19D1002104F10800FFF702
:1047100091FE05461AE0002104F10800FFF78AFE29
:104720000546DDE7002104F12800FFF709FF0546F3
:10473000D6E701263546DBE72E46D9E70126354682
:104740000CE0C02B02D0B3F5807F1CD15DBB674A63
:10475000136D23F4E073E16D0B431365236813F4C9
:10476000806F46D0D4F8A830B3F5800F39D01FD869
:104770008BB3B3F5001F18D1002104F10800FFF737
:1047800059FE05461AE001263546E7E7574AD36A3F
:1047900043F40033D362D9E7002104F12800FFF786
:1047A000CFFE0546D2E72E46D8E70126354620E063
:1047B000B3F5C00F02D0B3F5000F09D1C5B94B4A0C
:1047C000936D23F46003D4F8A8100B43936510E0B5
:1047D000012635460DE0454AD36A43F40033D362DF
:1047E000ECE7002104F12800FFF7AAFE0546E5E703
:1047F0002E46236813F4006F24D0D4F8AC30B3F104
:10480000007F42D00ED8002B39D0B3F1807F06D183
:10481000002104F10800FFF70DFE054608E001261F
:1048200035460FE0B3F1407F02D0B3F1806F23D162
:10483000002D31D12D4A936D23F0E063D4F8AC10F4
:104840000B439365236813F0007F2ED0E36C202B7D
:1048500040D026D833B1102B20D1244AD36A43F458
:104860000033D362002D3CD1204AD36C23F03003B7
:10487000E16C0B43D36418E001263546E2E71B4A9E
:10488000D36A43F40033D362D2E7002104F1280055
:10489000FFF756FE0546CBE72E46D3E70126354601
:1048A00003E0302BDED001263546236813F4805F09
:1048B0002DD0236EB3F5005F4FD019D8002B46D012
:1048C000B3F5805F0FD1002104F10800FFF7B2FDBE
:1048D000054613E0022104F10800FFF7ABFD054691
:1048E000C0E72E46E1E70126354610E000440258B5
:1048F000B3F5405F02D0B3F5804F25D1002D33D101
:10490000774A136D23F4E043216E0B43136523684C
:1049100013F4005F38D0636EB3F5003F53D028D84E
:1049200043B1B3F5803F21D1012104F10800FFF725
:1049300081FD0546002D4DD1694A136D23F4E02316
:10494000616E0B4313651FE001263546DFE7644ABD
:10495000D36A43F40033D362D0E7002104F1280086
:10496000FFF7EEFD0546C9E72E46D0E7012635469E
:104970000AE0B3F5802FDDD0B3F5A02FDAD0B3F580
:10498000403FD7D001263546236813F4804F31D0FD
:10499000D4F8B030B3F1005F45D020D843B1B3F1C3
:1049A000805F19D1012104F10800FFF743FD05469E
:1049B000002D3FD14A4A936D23F0E043D4F8B01064
:1049C0000B43936516E0012104F12800FFF7B8FDC1
:1049D0000546AFE72E46D7E7012635460AE0B3F194
:1049E000804FE5D0B3F1A04FE2D0B3F1405FDFD00C
:1049F00001263546236813F4004F09D0236FB3F125
:104A0000805F19D0B3F1005F24D0D3B101263546C1
:104A1000236813F0807F33D0A36C032B5BD8DFE8CF
:104A200003F027225327012104F12800FFF788FD16
:104A30000546BDE72E46DDE7294AD36A43F4003335
:104A4000D36275B9264A136D23F04053216F0B438F
:104A50001365DDE7012104F10800FFF7EBFC0546D3
:104A6000EFE72E46D4E71E4AD36A43F40033D362FD
:104A7000A5BB1B4AD36C23F00303A16C0B43D36487
:104A8000236813F4800F2DD1236813F0010F00F079
:104A9000A580E36F282B00F29F80DFE803F08D9D57
:104AA0009D9D9D9D9D9D879D9D9D9D9D9D9D969D53
:104AB0009D9D9D9D9D9D8D9D9D9D9D9D9D9D8D9D46
:104AC0009D9D9D9D9D9D8D00022104F10800FFF795
:104AD000B1FC0546CCE701263546D1E72E46CFE7A7
:104AE00000440258914A136843F480731360FDF741
:104AF0005DFC07468D4B1B6813F4807F05D1FDF7E5
:104B000055FCC01B6428F5D90325002D4AD1884BDC
:104B10001B6FD4F8B420534013F4407F0CD0844B67
:104B20001A6F22F44072196F41F480311967196FBE
:104B300021F4803119671A67D4F8B430B3F5807F57
:104B400015D08DBBD4F8B43003F44072B2F5407F79
:104B50001ED0774A136923F47C53136174490B6F99
:104B6000D4F8B420C2F30B0213430B678CE7FDF7B4
:104B70001DFC07466E4B1B6F13F0020FE1D1FDF7D2
:104B800015FCC01B41F288339842F3D90325D8E7BE
:104B90006748026922F47C52664901EA1313134301
:104BA0000361DBE72E466FE72E466DE7012104F136
:104BB0000800FFF73FFC0546E5B95D4A536D23F059
:104BC0003803E16F0B43536508E0012104F128002D
:104BD000FFF7B6FC0546EFE701263546236813F0DC
:104BE000020F17D0A36F052B28D8DFE803F00B05C1
:104BF000200B0B0B2E46F1E7012104F10800FFF713
:104C000019FC0546EDB94A4A536D23F00703A16F1D
:104C10000B435365236813F0040F23D0D4F894306A
:104C2000052B45D8DFE803F0150F3D1515150121BB
:104C300004F12800FFF784FC0546E3E7012635462A
:104C4000E8E72E46E6E7012104F10800FFF7F2FB52
:104C5000054685BB364A936D23F00703D4F89410BC
:104C60000B439365236813F0200F34D0D4F89030B1
:104C7000B3F1005F4ED023D843B1B3F1805F1CD1B4
:104C8000002104F10800FFF7D5FB0546002D48D1AF
:104C9000274A536D23F0E043D4F890100B4353653B
:104CA00019E0012104F12800FFF74AFC0546D0E78E
:104CB00001263546D6E72E46D4E7012635460AE0DA
:104CC000B3F1804FE2D0B3F1A04FDFD0B3F1405F3A
:104CD000DCD001263546236813F0400F37D0D4F8D6
:104CE0009C30B3F5006F53D026D843B1B3F5806F35
:104CF00019D1002104F10800FFF79CFB0546002DA7
:104D00004DD10B4A936D23F4E053D4F89C100B4320
:104D100093651CE0022104F12800FFF711FC054611
:104D2000B4E72E46D7E70126354610E00048025882
:104D300000440258CFFFFF00B3F5805FDFD0B3F52A
:104D4000A05FDCD0B3F5406FD9D00126354623688B
:104D500013F0800F33D0D4F8A030B3F5804F00F0BB
:104D6000A38021D843B1B3F5005F1AD1002104F12B
:104D70000800FFF75FFB0546002D40F09C80814A4C
:104D8000936D23F46043D4F8A0100B43936516E0B1
:104D9000022104F12800FFF7D3FB0546AFE72E46BA
:104DA000D5E7012635460AE0B3F5004FE4D0B3F568
:104DB000204FE1D0B3F5C04FDED001263546236841
:104DC00013F0080F0CD0D4F88430B3F5805F74D0A2
:104DD0006C4A536D23F44053D4F884100B4353654D
:104DE000236813F0100F0CD0D4F89830B3F5807FFF
:104DF0006CD0644A936D23F44073D4F898100B433D
:104E00009365236813F4002F0BD0D4F8A430B3F5C6
:104E1000803F74D0B3F5003F67D0002B5FD00126F0
:104E20003546236813F4802F0CD0D4F88830B3F5BE
:104E3000001F7CD0B3F5401F6FD0B3F5801F67D043
:104E400001263546236813F4803F08D0236D002BDC
:104E500076D0B3F5803F00F0818001263546236887
:104E600013F0005F40F08380236813F4003F00F0EC
:104E70008E80D4F88030B3F5807F00F0EC8040F273
:104E80008380B3F5007F03D0B3F5407F40F0E1802D
:104E9000002D40F0E6803B4A536D23F44073D4F874
:104EA00080100B43536572E0022104F12800FFF7E4
:104EB00047FB054660E72E4681E7022104F1280002
:104EC000FFF73EFB002883D0012681E7022104F191
:104ED0002800FFF735FB00288BD0012689E7002149
:104EE00004F10800FFF7A6FA05467DB9254A936D3F
:104EF00023F44033D4F8A4100B43936591E70221C7
:104F000004F12800FFF71CFB0546EEE72E4688E774
:104F10001C4AD36A43F40033D3627DB9194A536DF6
:104F200023F44013D4F888100B4353658AE701211A
:104F300004F12800FFF704FB0546EEE72E4681E763
:104F4000104AD36A43F40033D36275B90D4AD36C67
:104F500023F48033216D0B43D36480E7022104F1F5
:104F60000800FFF767FA0546EFE72E4677E70221CC
:104F700004F12800FFF7E4FA00283FF475AF01269A
:104F800072E700BF00440258002B81D0012623683D
:104F900013F4801F06D04F4A136D23F00043616F56
:104FA0000B431365236813F0805F07D0494A1369E8
:104FB00023F48043D4F8B8100B431361236813F42F
:104FC000001F06D0434A136D23F08073E16E0B433C
:104FD0001365236813F0804F09D03E4B1A6922F401
:104FE00000421A611A69D4F8BC100A431A61236896
:104FF000002B06DA374AD36C23F04053616D0B4324
:10500000D364236813F4000F07D0324A536D23F49E
:105010004003D4F88C100B435365636813F0010F01
:1050200021D1636813F0020F26D1636813F0040FD7
:105030002BD1636813F0080F30D1636813F0100FA1
:1050400035D1636813F0200F3AD106B101263046FE
:10505000F8BD01269BE71F4AD36A43F40033D362AD
:1050600016E72E4693E7002104F10800FFF7E2F966
:105070000028D6D00646D4E7012104F10800FFF746
:10508000D9F90028D1D00646CFE7022104F1080063
:10509000FFF7D0F90028CCD00646CAE7002104F17A
:1050A0002800FFF74DFA0028C7D00646C5E70121C2
:1050B00004F12800FFF744FA0028C2D00646C0E7F2
:1050C000022104F12800FFF73BFA0028BDD0064674
:1050D000BBE700BF0044025808B5FFF765F9054B70
:1050E0001B6AC3F30213044AD35C03F01F03D840C6
:1050F00008BD00BF0044025878D100082DE9F041F6
:105100000446864B9D6A9E6AC6F30536D86AC0F38C
:105110000010DB6BC3F3CC0303FB00F0FBF774FD63
:10512000002E00F0F58005F003050746012D79D02B
:10513000022D00F0CB800DB33046FBF765FD014634
:105140007748FBF76DFE0546744B986BC0F308007B
:10515000FBF75AFD06464FF064513846FBF7ACFDAD
:1051600001463046FBF7A0FC4FF07E51FBF79CFC5C
:1051700001462846FBF7A0FD054674E0674B1B6817
:1051800013F0200F2CD0DFF89481D8F80030C3F34F
:10519000C1036448D840FBF737FD05463046FBF7AE
:1051A00033FD01462846FBF73BFE0546D8F838009C
:1051B000C0F30800FBF728FD06464FF0645138465F
:1051C000FBF77AFD01463046FBF76EFC4FF07E514F
:1051D000FBF76AFC01462846FBF76EFD054642E0F8
:1051E0003046FBF711FD01464F48FBF719FE054617
:1051F0004A4B986BC0F30800FBF706FD06464FF0DC
:1052000064513846FBF758FD01463046FBF74CFC2D
:105210004FF07E51FBF748FC01462846FBF74CFD5A
:10522000054620E03046FBF7EFFC01463C48FBF723
:10523000F7FD0546394B986BC0F30800FBF7E4FC1B
:1052400006464FF064513846FBF736FD01463046BE
:10525000FBF72AFC4FF07E51FBF726FC014628465F
:10526000FBF72AFD05462D4EB06BC0F34620FBF739
:10527000CBFC4FF07E51FBF717FC01462846FBF7AD
:10528000CFFDFBF769FE2060B06BC0F30640FBF773
:10529000BBFC4FF07E51FBF707FC01462846FBF7AD
:1052A000BFFDFBF759FE6060B06BC0F30660FBF713
:1052B000ABFC4FF07E51FBF7F7FB01462846FBF7AE
:1052C000AFFDFBF749FEA060BDE8F0813046FBF77B
:1052D0009BFC01461548FBF7A3FD05460F4B986B59
:1052E000C0F30800FBF790FC06464FF064513846C7
:1052F000FBF7E2FC01463046FBF7D6FB4FF07E5150
:10530000FBF7D2FB01462846FBF7D6FC0546AAE789
:10531000002323606360A360D6E700BF0044025807
:105320000024744A0090D0030024744C20BCBE4B6F
:105330002DE9F0410446864B9D6A9E6AC6F30556E8
:10534000D86AC0F300205B6CC3F3CC0303FB00F00E
:10535000FBF75AFC002E00F0F58005F00305074628
:10536000012D79D0022D00F0CB800DB33046FBF734
:105370004BFC01467748FBF753FD0546744B186C10
:10538000C0F30800FBF740FC06464FF06451384676
:10539000FBF792FC01463046FBF786FB4FF07E514F
:1053A000FBF782FB01462846FBF786FC054674E0C6
:1053B000674B1B6813F0200F2CD0DFF89481D8F8CE
:1053C0000030C3F3C1036448D840FBF71DFC054619
:1053D0003046FBF719FC01462846FBF721FD054640
:1053E000D8F84000C0F30800FBF70EFC06464FF06B
:1053F00064513846FBF760FC01463046FBF754FB2E
:105400004FF07E51FBF750FB01462846FBF754FC5A
:10541000054642E03046FBF7F7FB01464F48FBF7F5
:10542000FFFC05464A4B186CC0F30800FBF7ECFB89
:1054300006464FF064513846FBF73EFC01463046C5
:10544000FBF732FB4FF07E51FBF72EFB014628465F
:10545000FBF732FC054620E03046FBF7D5FB014662
:105460003C48FBF7DDFC0546394B186CC0F30800DF
:10547000FBF7CAFB06464FF064513846FBF71CFCAD
:1054800001463046FBF710FB4FF07E51FBF70CFB5B
:1054900001462846FBF710FC05462D4E306CC0F344
:1054A0004620FBF7B1FB4FF07E51FBF7FDFA0146BA
:1054B0002846FBF7B5FCFBF74FFD2060306CC0F3CE
:1054C0000640FBF7A1FB4FF07E51FBF7EDFA0146DA
:1054D0002846FBF7A5FCFBF73FFD6060306CC0F38E
:1054E0000660FBF791FB4FF07E51FBF7DDFA0146BA
:1054F0002846FBF795FCFBF72FFDA060BDE8F08187
:105500003046FBF781FB01461548FBF789FC054651
:105510000F4B186CC0F30800FBF776FB06464FF004
:1055200064513846FBF7C8FB01463046FBF7BCFA2E
:105530004FF07E51FBF7B8FA01462846FBF7BCFB5B
:105540000546AAE7002323606360A360D6E700BF97
:10555000004402580024744A0090D0030024744C84
:1055600020BCBE4B10B4036A046A24F00104046238
:10557000846924F0F00C4CEA021223F00A030B4376
:105580008261036210BC704710B4046A24F01004F6
:1055900004628469036A24F4704C4CEA023223F0FA
:1055A000A00343EA01138261036210BC704700004C
:1055B0008268034B13400B4343F00703836070473B
:1055C0008FFFCFFF90F83D30DBB2012B3AD10223A1
:1055D00080F83D300268D36843F00103D36003686C
:1055E0001A4AB3F1804F18BF93421DD0A2F57C42F6
:1055F000934219D002F58062934215D002F5806281
:10560000934211D002F5784293420DD0A2F56C423C
:10561000934209D002F59432934205D01A6842F0C1
:1056200001021A60002070479968094A0A40062A58
:1056300018BFB2F5803F07D01A6842F001021A6025
:105640000020704701207047002070470000014093
:105650000700010030B50368394A904214BF4FF08B
:10566000000E4FF0010EB0F1804F14BF72464EF0A5
:105670000102AAB9334CA04214BF00240124324DC8
:10568000A8420DD064B904F1804404F58234A042EC
:1056900014BF0024012405F50065A84200D01CB108
:1056A00023F070034C68234312BB264A904214BF78
:1056B00000220122244CA0421AD0CAB902F1804231
:1056C00002F58232904214BF0022012204F50064E8
:1056D000A0420DD062B91D4A904214BF002201229F
:1056E00004F59A34A04203D012B9194A904204D169
:1056F00023F4407CCB6843EA0C0323F080034A691F
:10570000134303608A68C2620A688262114A904247
:1057100014BF73464EF0010363B90C4B984214BF9B
:105720000023012302F57052904203D013B9084BB5
:10573000984201D10B6903630123436130BD00BF6F
:105740000000014000080040000400400044014007
:10575000004801400004014060B310B5044690F8D1
:105760003D3013B3022384F83D30214651F8040B39
:10577000FFF770FF012384F8483084F83E3084F846
:105780003F3084F8403084F8413084F8423084F867
:10579000433084F8443084F8453084F8463084F847
:1057A000473084F83D30002010BD80F83C30FCF7D5
:1057B00033FCD7E70120704710B4846824F47F4C91
:1057C00042EA03220A4342EA0C02826010BC70479C
:1057D00090F83C30012B00F08F8010B50446012377
:1057E00080F83C30022380F83D3002689068434BDB
:1057F000034093600B68702B55D031D8502B6CD080
:105800000CD9602B2AD1CA6849682068FFF7BCFE12
:1058100060212068FFF7CCFE002035E0402B0AD144
:10582000CA6849682068FFF79DFE40212068FFF79D
:10583000BFFE002028E05BD8202B07D003D9302BF7
:1058400004D0012020E00BB1102B05D119462068AF
:10585000FFF7AEFE002017E0012015E0012013E065
:10586000B3F5005F2CD00BD9254A9342EED012D964
:10587000244A9342EAD010329342E7D0012003E059
:10588000B3F5805F36D10020012384F83D3000233A
:1058900084F83C3010BDB3F5801FD7D0B3F1101F92
:1058A000D4D00120F0E7CB684A6889682068FFF708
:1058B00083FF2268936843F0770393600020E3E757
:1058C000CB684A6889682068FFF776FF226893688A
:1058D00043F4804393600020D6E7CA684968206893
:1058E000FFF740FE50212068FFF762FE0020CBE763
:1058F0000120C9E70120C7E7022070478800CEFFDA
:10590000200010003000100090F83C30012B45D0F2
:1059100070B4012380F83C30022380F83D300368E6
:105920005A689C681E4E1F4DAB4218BFB34203D14C
:1059300022F470024D682A4322F070020D682A4357
:105940005A600368164AB3F1804F18BF934217D0CC
:10595000A2F57C42934213D002F5806293420FD0AD
:1059600002F5806293420BD002F57842934207D051
:10597000A2F56C42934203D002F59432934204D1D3
:1059800024F080048A6814439C60012380F83D3031
:10599000002380F83C30184670BC704702207047E6
:1059A0000000014000040140026852E8003F23F477
:1059B000907342E800310029F6D1026802F1080331
:1059C00053E8001F0D4B0B40083242E8003100291C
:1059D000F3D1C36E012B06D02023C0F88C300023F6
:1059E000C36643677047026852E8003F23F0100324
:1059F00042E800310029F6D1EEE700BFFEFFFFEFDD
:105A0000704708B5026852E8003F23F0400342E8BF
:105A100000310029F6D12023C0F8883000238367A5
:105A2000FFF7EEFF08BD704708B5806B0023A0F8B4
:105A30005E30A0F85630FFF7F6FF08BD7047000053
:105A400070B504460168CB6908688D6840F60F029E
:105A50001A4008D113F0200F05D010F0200F34D1D8
:105A600015F0805F31D12AB18B4A2A4033D18B4E59
:105A7000304230D1E26E012A00F0C68013F4801F5C
:105A800003D015F4800F40F09B8113F0800F07D0F6
:105A900010F0800F40F09B8115F4000F40F09781CB
:105AA00013F0400F03D010F0400F40F0978113F433
:105AB000000F03D010F0804F40F0948113F0807FEE
:105AC00002D00028C0F2928170BD636F002BFBD022
:105AD00020469847F8E713F0010F09D010F4807FB3
:105AE00006D001260E62D4F890103143C4F890100D
:105AF00013F0020F0BD015F0010F08D02168022619
